{
  "_format": "hh3-artifact-1",
  "contractName": "MedicalRecord",
  "sourceName": "contracts/MedicalRecord.sol",
  "abi": [
    {
      "anonymous": false,
      "inputs": [
        {
          "indexed": true,
          "internalType": "address",
          "name": "patient",
          "type": "address"
        },
        {
          "indexed": false,
          "internalType": "string",
          "name": "ipfsHash",
          "type": "string"
        },
        {
          "indexed": true,
          "internalType": "address",
          "name": "doctor",
          "type": "address"
        }
      ],
      "name": "RecordAdded",
      "type": "event"
    },
    {
      "inputs": [
        {
          "internalType": "address",
          "name": "_patient",
          "type": "address"
        },
        {
          "internalType": "string",
          "name": "_ipfsHash",
          "type": "string"
        },
        {
          "internalType": "string",
          "name": "_fileName",
          "type": "string"
        }
      ],
      "name": "addRecord",
      "outputs": [],
      "stateMutability": "nonpayable",
      "type": "function"
    },
    {
      "inputs": [
        {
          "internalType": "address",
          "name": "_patient",
          "type": "address"
        }
      ],
      "name": "getRecords",
      "outputs": [
        {
          "components": [
            {
              "internalType": "string",
              "name": "ipfsHash",
              "type": "string"
            },
            {
              "internalType": "string",
              "name": "fileName",
              "type": "string"
            },
            {
              "internalType": "address",
              "name": "doctor",
              "type": "address"
            },
            {
              "internalType": "uint256",
              "name": "timestamp",
              "type": "uint256"
            }
          ],
          "internalType": "struct MedicalRecord.Record[]",
          "name": "",
          "type": "tuple[]"
        }
      ],
      "stateMutability": "view",
      "type": "function"
    }
  ],
  "bytecode": "0x6080604052348015600e575f5ffd5b50610bab8061001c5f395ff3fe608060405234801561000f575f5ffd5b5060043610610034575f3560e01c8063a0076e8414610038578063d47b41d514610068575b5f5ffd5b610052600480360381019061004d9190610489565b610084565b60405161005f919061066d565b60405180910390f35b610082600480360381019061007d91906107b9565b61029a565b005b60605f5f8373ffffffffffffffffffffffffffffffffffffffff1673ffffffffffffffffffffffffffffffffffffffff1681526020019081526020015f20805480602002602001604051908101604052809291908181526020015f905b8282101561028f578382905f5260205f2090600402016040518060800160405290815f820180546101119061086e565b80601f016020809104026020016040519081016040528092919081815260200182805461013d9061086e565b80156101885780601f1061015f57610100808354040283529160200191610188565b820191905f5260205f20905b81548152906001019060200180831161016b57829003601f168201915b505050505081526020016001820180546101a19061086e565b80601f01602080910402602001604051908101604052809291908181526020018280546101cd9061086e565b80156102185780601f106101ef57610100808354040283529160200191610218565b820191905f5260205f20905b8154815290600101906020018083116101fb57829003601f168201915b50505050508152602001600282015f9054906101000a900473ffffffffffffffffffffffffffffffffffffffff1673ffffffffffffffffffffffffffffffffffffffff1673ffffffffffffffffffffffffffffffffffffffff168152602001600382015481525050815260200190600101906100e1565b505050509050919050565b5f60405180608001604052808481526020018381526020013373ffffffffffffffffffffffffffffffffffffffff1681526020014281525090505f5f8573ffffffffffffffffffffffffffffffffffffffff1673ffffffffffffffffffffffffffffffffffffffff1681526020019081526020015f2081908060018154018082558091505060019003905f5260205f2090600402015f909190919091505f820151815f01908161034a9190610a3e565b5060208201518160010190816103609190610a3e565b506040820151816002015f6101000a81548173ffffffffffffffffffffffffffffffffffffffff021916908373ffffffffffffffffffffffffffffffffffffffff1602179055506060820151816003015550503373ffffffffffffffffffffffffffffffffffffffff168473ffffffffffffffffffffffffffffffffffffffff167f0162e5f82d0f9f6c8f00cc90a44c2fe43acd1f1da0641215282171672daad6fa856040516104109190610b55565b60405180910390a350505050565b5f604051905090565b5f5ffd5b5f5ffd5b5f73ffffffffffffffffffffffffffffffffffffffff82169050919050565b5f6104588261042f565b9050919050565b6104688161044e565b8114610472575f5ffd5b50565b5f813590506104838161045f565b92915050565b5f6020828403121561049e5761049d610427565b5b5f6104ab84828501610475565b91505092915050565b5f81519050919050565b5f82825260208201905092915050565b5f819050602082019050919050565b5f81519050919050565b5f82825260208201905092915050565b8281835e5f83830152505050565b5f601f19601f8301169050919050565b5f61051f826104dd565b61052981856104e7565b93506105398185602086016104f7565b61054281610505565b840191505092915050565b6105568161044e565b82525050565b5f819050919050565b61056e8161055c565b82525050565b5f608083015f8301518482035f86015261058e8282610515565b915050602083015184820360208601526105a88282610515565b91505060408301516105bd604086018261054d565b5060608301516105d06060860182610565565b508091505092915050565b5f6105e68383610574565b905092915050565b5f602082019050919050565b5f610604826104b4565b61060e81856104be565b935083602082028501610620856104ce565b805f5b8581101561065b578484038952815161063c85826105db565b9450610647836105ee565b925060208a01995050600181019050610623565b50829750879550505050505092915050565b5f6020820190508181035f83015261068581846105fa565b905092915050565b5f5ffd5b5f5ffd5b7f4e487b71000000000000000000000000000000000000000000000000000000005f52604160045260245ffd5b6106cb82610505565b810181811067ffffffffffffffff821117156106ea576106e9610695565b5b80604052505050565b5f6106fc61041e565b905061070882826106c2565b919050565b5f67ffffffffffffffff82111561072757610726610695565b5b61073082610505565b9050602081019050919050565b828183375f83830152505050565b5f61075d6107588461070d565b6106f3565b90508281526020810184848401111561077957610778610691565b5b61078484828561073d565b509392505050565b5f82601f8301126107a05761079f61068d565b5b81356107b084826020860161074b565b91505092915050565b5f5f5f606084860312156107d0576107cf610427565b5b5f6107dd86828701610475565b935050602084013567ffffffffffffffff8111156107fe576107fd61042b565b5b61080a8682870161078c565b925050604084013567ffffffffffffffff81111561082b5761082a61042b565b5b6108378682870161078c565b9150509250925092565b7f4e487b71000000000000000000000000000000000000000000000000000000005f52602260045260245ffd5b5f600282049050600182168061088557607f821691505b60208210810361089857610897610841565b5b50919050565b5f819050815f5260205f209050919050565b5f6020601f8301049050919050565b5f82821b905092915050565b5f600883026108fa7fffffffffffffffffffffffffffffffffffffffffffffffffffffffffffffffff826108bf565b61090486836108bf565b95508019841693508086168417925050509392505050565b5f819050919050565b5f61093f61093a6109358461055c565b61091c565b61055c565b9050919050565b5f819050919050565b61095883610925565b61096c61096482610946565b8484546108cb565b825550505050565b5f5f905090565b610983610974565b61098e81848461094f565b505050565b5b818110156109b1576109a65f8261097b565b600181019050610994565b5050565b601f8211156109f6576109c78161089e565b6109d0846108b0565b810160208510156109df578190505b6109f36109eb856108b0565b830182610993565b50505b505050565b5f82821c905092915050565b5f610a165f19846008026109fb565b1980831691505092915050565b5f610a2e8383610a07565b9150826002028217905092915050565b610a47826104dd565b67ffffffffffffffff811115610a6057610a5f610695565b5b610a6a825461086e565b610a758282856109b5565b5f60209050601f831160018114610aa6575f8415610a94578287015190505b610a9e8582610a23565b865550610b05565b601f198416610ab48661089e565b5f5b82811015610adb57848901518255600182019150602085019450602081019050610ab6565b86831015610af85784890151610af4601f891682610a07565b8355505b6001600288020188555050505b505050505050565b5f82825260208201905092915050565b5f610b27826104dd565b610b318185610b0d565b9350610b418185602086016104f7565b610b4a81610505565b840191505092915050565b5f6020820190508181035f830152610b6d8184610b1d565b90509291505056fea26469706673582212200df92c37f625c83b856a8cc358d8be3f88220ab5c7537180115a2a465d20145564736f6c634300081c0033",
  "linkReferences": {},
  "deployedLinkReferences": {},
  "immutableReferences": {},
  "inputSourceName": "project/contracts/MedicalRecord.sol",
  "buildInfoId": "solc-0_8_28-92baee6ea660ece032b423f162dc1e8154474af6"
}